:100000000C942C010C9454010C9454010C94540144
:100010000C9454010C9454010C9454010C9454010C
:100020000C9454010C9454010C9456040C94070342
:100030000C9454010C9454010C9454010C945401EC
:100040000C9454010C9454010C9454010C945401DC
:100050000C9454010C9454010C9454010C94BF055D
:100060000C9454010C9454010C9454010C945401BC
:100070000C9454010C9454010C9454010C945401AC
:100080000C9454010C9454010C9454010C9454019C
:100090000C9454010C9454010C9454010C9454018C
:1000A0000C9454010C9454010C94540100C18081AF
:1000B000C11201000202000040412337800001010B
:1000C00002000112010002000000404123378000BD
:1000D000010102000118034100720064007500690B
:1000E000006E006F0020004C004C004300220341D2
:1000F0000072006400750069006E006F0020004D02
:10010000006900630072006F0020002000200004DE
:10011000030904080B0002020201000904000001A7
:10012000020200000524001001052401010104243D
:10013000020605240600010705810310004009049A
:100140000100020A00000007050202400000070546
:10015000830240000000000000000000002A2B285D
:10016000000000000000000000000000000000008F
:1001700000000000002C9EB4A0A1A2A434A6A7A554
:10018000AE362D3738271E1F20212223242526B3E3
:1001900033B62EB7B89F8485868788898A8B8C8DE5
:1001A0008E8F909192939495969798999A9B9C9DF7
:1001B0002F3130A3AD350405060708090A0B0C0DD5
:1001C0000E0F101112131415161718191A1B1C1DD7
:1001D000AFB1B0B50009040200010300000009211D
:1001E00001010001226500070584034000010501AB
:1001F0000902A1010901A1008501050919012903CD
:10020000150025019503750181029501750581038E
:1002100005010930093109381581257F75089503D5
:100220008106C0C005010906A1018502050719E084
:1002300029E71500250175019508810295017508CA
:1002400081039506750815002565050719002965C0
:100250008100C000AE05D60711241FBECFEFDAE043
:10026000DEBFCDBF11E0A0E0B1E0E2E2F0E102C00C
:1002700005900D92AA32B107D9F721E0AAE2B1E0C8
:1002800001C01D92AB39B207E1F711E0CCE2D1E039
:1002900004C02197FE010E940908CA32D107C9F79C
:1002A0000E9458010C940F080C94000008950895C2
:1002B0000E9454068AE291E00E9436040E94560190
:1002C000C0E0D0E00E9457012097E1F30E940000B7
:1002D000F9CF615030F02091F100FC0120830196AC
:1002E000F8CF289A84E68093310108952FB7FC0156
:1002F0002083F89467706093E9000895CF93DF93AB
:100300001F92CDB7DEB7682FCE0101960E9476010D
:100310008091F20099819FBF0F90DF91CF91089556
:10032000EF92FF920F931F93CF93DF931F92CDB75E
:10033000DEB790913001992311F057FF03C08FEF82
:100340009FEF29C08A017B01682FCE0101960E9490
:1003500076012091F20030E0021713070CF49801A7
:10036000822FF70194E6815038F0289A909331015A
:100370004091F1004193F7CF2115310521F0809193
:10038000F200882321F089818FBFC90104C08BE668
:100390008093E800F8CF0F90DF91CF911F910F91DC
:1003A000FF90EF900895CF93DF931F92CDB7DEB704
:1003B00041E050E0BE016F5F7F4F0E9490010197C6
:1003C00019F4898190E002C08FEF9FEF0F90DF91C9
:1003D000CF910895CF93DF931F92CDB7DEB7682FEB
:1003E000CE0101960E9476019091E800892F8072DB
:1003F00095FF04C09091F20080E4891B99819FBF12
:100400000F90DF91CF9108954F925F926F927F92FC
:100410008F929F92AF92BF92CF92DF92EF92FF9214
:100420000F931F93CF93DF931F92CDB7DEB7A82E04
:100430006B01B42E052F80913001882369F0E42EE2
:10044000F52E8AEF782E8A2D8072582E9AE3692E27
:100450008A2D8074482E12C08FEF9FEF4FC08A2DD7
:100460000E94EA01182F81110DC07A947720A1F320
:1004700061E070E080E090E00E942E06E114F1045B
:1004800071F732C090E0E816F9060CF41E2D812EAB
:10049000912CE818F9086A2DCE0101960E94760188
:1004A000552029F01150A0F01092F100FBCFF60179
:1004B000A7FE0AC0115050F084918093F10031964C
:1004C000F9CF81918093F1001150D8F7C80CD91C55
:1004D0008091E80085FF0FC0E114F10411F4411090
:1004E0000AC089818FBFCACF5D9A84E680933201AA
:1004F0008B2D902F03C06092E800F3CF0F90DF9117
:10050000CF911F910F91FF90EF90DF90CF90BF9010
:10051000AF909F908F907F906F905F904F900895D5
:100520001092E90010922F0110922E0190932D014C
:1005300080932C0108950F931F93CF93DF93DB01DA
:10054000A40FB51FFB016EEFEA17FB0791F187FFC0
:1005500002C0249101C0208100912E0110912F0131
:10056000C0912C01D0912D010C171D07B4F490916E
:10057000E8009570E1F39091E80092FD1CC0209393
:10058000F10020912E0130912F012F5F3F4F2F73EB
:100590003327232B11F46093E80020912E01309132
:1005A0002F012F5F3F4F30932F0120932E01319663
:1005B000CBCFCA0102C08FEF9FEFDF91CF911F9188
:1005C0000F910895CF93DF93EB012091E80022FF74
:1005D000FCCF6C2F0E9469018BEF8093E800CE0165
:1005E000DF91CF910895CF93DF931F92CDB7DEB700
:1005F0001982CE0101960E944A05CE0101960E9401
:10060000C806898190E00F90DF91CF9108951F92E5
:100610000F920FB60F921124CF92DF92EF92FF92BA
:100620001F932F933F934F935F936F937F938F937A
:100630009F93AF93BF93EF93FF93CF93DF93CDB788
:10064000DEB76197DEBFCDBF1092E9008091E80070
:1006500083FFE4C068E0CE010A960E94690182EF40
:100660008093E8009A8597FF05C08091E80080FF9D
:10067000FCCF03C08EEF8093E800892F807609F0CD
:10068000A3C08B85811105C01092F1001092F1007A
:10069000BEC0282F2D7F213009F4B9C0853049F420
:1006A0008091E80080FFFCCF8C8580688093E30018
:1006B000AEC0863009F05EC01D85E888F98812302A
:1006C00069F580E090E00E9490020E94F30299E0B8
:1006D0009E012F5F3F4F6901F901292F11922A9541
:1006E000E9F799831A8391E09E8390E898879AEFBF
:1006F000998720912E0130912F01275F3F4F3C8336
:100700002B838D83C7010E94900249E050E0B6011F
:1007100080E00E949B020E94F30279C0C7010E9400
:100720009002123241F482E290E00E94D306892BBB
:1007300009F06DC070C0113069F4888999890897F3
:1007400011F410932B0180912B01811152C063ECA5
:1007500070E057C0133009F05EC08C85882309F41F
:100760004BC0823009F44BC0813009F054C065EDB4
:1007700070E047C0873009F44EC0883021F481E032
:100780008093F10044C0893009F041C0937009F0B2
:1007900042C0EDEAF0E081E031E096E38093E900C9
:1007A0003093EB0024912093EC009093ED008F5F49
:1007B0003196853099F78EE78093EA001092EA002F
:1007C0008C858093300123C0888999890E9490028A
:1007D0008E85811105C0CE010A960E94550506C07E
:1007E0008230C9F4CE010A960E94FB06882399F054
:1007F0000EC061EB70E005C06FE071E002C06DEE0D
:1008000070E0FB01449150E080E80E949B028EEF73
:100810008093E80003C081E28093EB0061960FB6FD
:10082000F894DEBF0FBECDBFDF91CF91FF91EF9166
:10083000BF91AF919F918F917F916F915F914F91F8
:100840003F912F911F91FF90EF90DF90CF900F90ED
:100850000FBE0F901F9018958093E9008091F200D1
:10086000882319F08AE38093E800089510923001FC
:1008700081E08093D70080EA8093D80082E189BD2F
:1008800009B400FEFDCF61E070E080E090E00E94DE
:100890002E0680E98093D8008CE08093E2001092CD
:1008A000E000559A209A5D98289808951F920F921B
:1008B0000FB60F9211242F933F934F935F936F9333
:1008C0007F938F939F93AF93BF93EF93FF93809109
:1008D000E1001092E10083FF0FC01092E90091E067
:1008E0009093EB001092EC0092E39093ED00109245
:1008F000300198E09093F00082FF26C083E00E94D0
:100900002C0482E00E947E01882321F083E391E0A1
:100910000E94FC0480913201882339F080913201D9
:10092000815080933201882369F0809131018823BE
:1009300059F080913101815080933101811104C0BF
:10094000289802C05D98F1CFFF91EF91BF91AF91D0
:100950009F918F917F916F915F914F913F912F91D7
:100960000F900FBE0F901F9018958091810190916C
:1009700082012091830130918401821B930B8F733C
:1009800099270895209181013091820180918301FE
:10099000909184012817390749F0E0918301F09183
:1009A0008401EF5BFE4F808190E008958FEF9FEF11
:1009B000089520918101309182018091830190916D
:1009C000840128173907A9F0E0918301F09184018F
:1009D000EF5BFE4F808120918301309184012F5F76
:1009E0003F4F2F733327309384012093830190E08E
:1009F00008958FEF9FEF0895CF93DF93C09181010A
:100A0000D09182012196CF73DD278091830190914F
:100A10008401C817D90799F082E00E94D3018F3F63
:100A20002FEF920761F0E0918101F0918201EF5B7D
:100A3000FE4F8083D0938201C0938101DFCFDF918D
:100A4000CF91089583E00C942C040F931F93CF93C0
:100A5000DF931F92CDB7DEB78C01698380910701C8
:100A6000882359F041E050E0BE016F5F7F4F83E083
:100A70000E940402181619063CF081E090E0F8018B
:100A80009383828380E090E00F90DF91CF911F915C
:100A90000F910895FC0190819E5F908342E450E0A5
:100AA00063E171E080E80C949B02FC0181819081FC
:100AB000913A59F4813209F04DC047E050E060E0CE
:100AC00071E080E00E949B0247C0913209F042C071
:100AD000803239F467E070E080E091E00E94E20249
:100AE0003BC0823209F036C0828180930701809139
:100AF000000190910101A0910201B0910301803B9E
:100B00009440A105B10541F58091070180FD11C018
:100B100087E797E790930108809300089BE088E1BE
:100B20000FB6F894A895809360000FBE9093600074
:100B300013C00FB6F894A8958091600088618093E7
:100B40006000109260000FBEA895109201081092EC
:100B5000000802C080E0089581E00895E3E3F1E039
:100B60001382128288EE93E0A0E0B0E08483958344
:100B7000A683B7838EE091E09183808308951F92CE
:100B80000F920FB60F9211242F933F938F939F9341
:100B9000AF93BF938091860190918701A0918801C6
:100BA000B09189013091850123E0230F2D3720F486
:100BB0000196A11DB11D05C026E8230F0296A11DB7
:100BC000B11D209385018093860190938701A093A6
:100BD0008801B093890180918A0190918B01A09145
:100BE0008C01B0918D010196A11DB11D80938A01E8
:100BF00090938B01A0938C01B0938D01BF91AF9125
:100C00009F918F913F912F910F900FBE0F901F904A
:100C100018953FB7F89480918A0190918B01A0912B
:100C20008C01B0918D0126B5A89B05C02F3F19F00E
:100C30000196A11DB11D3FBFBA2FA92F982F88275C
:100C4000820F911DA11DB11DBC01CD0142E0660FB7
:100C5000771F881F991F4A95D1F70895CF92DF9289
:100C6000EF92FF92CF93DF936B017C010E94090604
:100C7000EB01C114D104E104F10479F00E940906EA
:100C80006C1B7D0B683E7340A0F381E0C81AD1084D
:100C9000E108F108C851DC4FECCFDF91CF91FF9014
:100CA000EF90DF90CF900895789484B5826084BDF2
:100CB00084B5816084BD85B5826085BD85B5816060
:100CC00085BDEEE6F0E0808181608083E1E8F0E0C0
:100CD0001082808182608083808181608083E0E8EF
:100CE000F0E0808181608083E1E9F0E080818260D2
:100CF0008083808181608083E0E9F0E08081816091
:100D00008083E1ECF0E08081846080838081826078
:100D10008083808181608083E3ECF0E0808181606A
:100D20008083E0ECF0E0808182608083E2ECF0E0A0
:100D3000808181608083EAE7F0E080818460808345
:100D400080818260808380818160808380818068EF
:100D500080830895EF92FF921F93CF93DF93EC016E
:100D6000162FE881F9810480F581E02D09957C0139
:100D7000E881F9810680F781E02D612FCE01099588
:100D8000C7019927DF91CF911F91FF90EF900895B0
:100D9000FC0190819F5F908349E150E065ED71E037
:100DA00080E80C949B0245E650E06EEE71E080E82E
:100DB0000C949B02EF92FF920F931F93CF93DF93BC
:100DC0001F92CDB7DEB789838B017A0141E050E0F5
:100DD000BE016F5F7F4F84E00E940402A701B8014B
:100DE00084E40E9404020F90DF91CF911F910F9134
:100DF000FF90EF900895FC0191818081813A31F458
:100E000081E0913091F0933089F411C0813271F416
:100E10009B3021F482818093090105C09A3031F41E
:100E200082818093080181E00895089580E008950B
:100E300048E050E082E00C94DA06DC01683810F0FB
:100E400068582DC0E62FF0E067FF11C0E058F109A7
:100E500081E090E001C0880FEA95EAF714969C9132
:100E60001497892B14968C93149760E018C0EB5A52
:100E7000FE4F6491611109C081E090E013969C934C
:100E80008E93129780E090E0089567FF08C0149653
:100E90008C911497826014968C9314976F771696A2
:100EA0008C911697681751F117968C9117976817C0
:100EB00029F118968C911897681701F119968C9161
:100EC00019976817D9F01A968C911A976817B1F08C
:100ED0001B968C911B97681789F0FD01369680E070
:100EE00090E02191211105C0FD01E80FF91F6683F3
:100EF00005C0019686309105A1F7BECFCD01BD0199
:100F00006C5F7F4F0E94180781E090E00895DC013C
:100F1000683810F0685825C0E62FF0E067FF12C06F
:100F2000E058F10981E090E001C0880FEA95EAF706
:100F3000809514969C911497892314968C931497FA
:100F400060E00FC0EB5AFE4F64916623F9F067FF33
:100F500008C014968C9114978D7F14968C931497D7
:100F60006F77FD0186E0662321F09681691301C049
:100F70001682815031968111F6CFCD01BD016C5F93
:100F80007F4F0E94180781E090E0089580E090E094
:100F90000895FC0116821782108611861286138628
:100FA0001482BC016C5F7F4F0C94180710929A0159
:100FB000EEE8F1E01382128280E291E09183808377
:100FC0000895CF92DF92EF92FF920F931F93CF93EA
:100FD000DF936C01EB017B01E40EF51E00E010E0F5
:100FE000CE15DF0561F06991D601ED91FC9101907C
:100FF000F081E02DC6010995080F191FF1CFC80136
:10100000DF91CF911F910F91FF90EF90DF90CF90E4
:101010000895EE0FFF1F0590F491E02D0994F894C8
:02102000FFCF00
:1010220000E10000000000000101000000002505B1
:10103200E107B504D904C2042205FC040000000043
:0A104200AA06E1071D078707C9078A
:00000001FF
